:020000022000DC
:1060000000000420A1F20300E1F20300E3F2030028
:10601000E5F20300E7F20300E9F2030000000000EC
:1060200000000000000000000000000029F1030053
:10603000EDF203000000000049F10300F1F203005B
:1060400061F40300F3F20300F3F2030019640300A8
:10605000F3F20300F3F20300D5C80300F3F20300E8
:10606000F3F20300F3F20300F3F20300F3F2030090
:10607000F3F20300F3F20300F3F20300F3F2030080
:10608000F3F2030079EE0300F3F20300F3F20300EE
:10609000F3F20300F3F20300F3F20300F3F2030060
:1060A000F3F20300F3F20300F3F20300F3F2030050
:1060B000F3F203009D8303000000000000000000D5
:1060C000F3F20300F3F20300F3F2030075F90300A7
:1060D000F3F20300F3F20300F3F2030099D202009B
:1060E000F3F20300F3F20300F3F2030000000000F8
:1060F00000000000F3F2030000000000EDF90300CF
:10610000000000000000000000000000000000008F
:10611000000000000000000000000000000000007F
:10612000000000000000000000000000000000006F
:10613000000000000000000000000000000000005F
:10614000000000000000000000000000000000004F
:10615000000000000000000000000000000000003F
:10616000000000000000000000000000000000002F
:10617000000000000000000000000000000000001F
:10618000000000000000000000000000000000000F
:1061900000000000000000000000000000000000FF
:1061A00000000000000000000000000000000000EF
:1061B00000000000000000000000000000000000DF
:1061C00000000000000000000000000000000000CF
:1061D00000000000000000000000000000000000BF
:1061E00000000000000000000000000000000000AF
:1061F000000000000000000000000000000000009F
:10620000F1EE103A43F08073E1EE103A704700BFB0
:1062100010B5054C237833B9044B13B10448AFF3E0
:1062200000800123237010BDA8630020000000003F
:1062300010B6040008B5034B1BB103490348AFF384
:10624000008008BD00000000AC63002010B6040010
:10625000154B002B08BF134B9D46A3F5803A002138
:106260008B460F461348144A121A1BF01BFB0F4BA8
:10627000002B00D098470E4B002B00D098470020F1
:10628000002104000D000D48002802D00C48AFF397
:1062900000801BF0ABFA2000290019F059F81BF020
:1062A00091FA00BF00000800000004200000000078
:1062B00000000000A863002094E10020000000001E
:1062C00000000000704700BF704700BF704700BF6C
:1062D00038B5054CA4F15405204616F05BFCAC42E1
:1062E000A4F10C04F8D138BD186400202DE9F04366
:1062F0006C4D83B016F04CFD6B4A2B681278C01AB7
:10630000904270D3694C217800296FD001F1FF3C95
:1063100001295FFA8CFC40F2BF808E1E0329F6B281
:1063200040F291800F1F0729FFB240F2B280A1F125
:1063300008085FFA88F8DFF87C91002B60D119F823
:1063400001205B484FF6FF7C66315300CDF800C05A
:10635000C2F162020EF0D6FB2178C80739D42B684F
:10636000002B5DD119F80120514856004FF6FF73FC
:10637000DD31C2F162020193009602230EF00AFAA7
:1063800021788A0725D12B68002B60D119F80120CC
:10639000474856004FF6FF73663101930096042379
:1063A000C2F19E020EF0F6F921784B0711D12B684D
:1063B000002B5DD119F801203D4856004FF6FF73C0
:1063C000663101930096C2F1DB0208230EF0E2F978
:1063D00021780131C9B24F298ABF0023217023706F
:1063E00016F0D6FC286003B0BDE8F083DFF8C49057
:1063F0004C274E264FF04F0C4FF04808002B9ED0F4
:1064000019F80C202A4848F21E4E0CF16601530080
:10641000CDF800E0C2F162020EF074FB21788EE745
:1064200019F8062022484FEA420C4EF6316306F175
:10643000DD010193CDF800C0C2F1620202230EF02B
:10644000A9F921788EE74C274FF0480873E719F82F
:106450000720174856004CF2D25307F1660101930A
:106460000096C2F19E0204230EF094F921788DE784
:1064700019F808200E4856004CF67B5308F16601C7
:1064800001930096C2F1DB0208230EF083F9217814
:1064900090E74FF048084EE74C274E264FF048084B
:1064A00049E700BF4071002074600020E4700020C4
:1064B000B4A00020404E04002DE9F04F4D4FDFF80E
:1064C00058814D4E4D4CDFF85491ADF2A46D02252C
:1064D00007A9332012F0CAFBD7ED000AF5EE400AF7
:1064E000F1EE10FA3246214607A807D098ED000ACF
:1064F00012F0FAFC012D16D00125E9E712F02CFC70
:10650000F2EE000A70EE600AF0EE407A324698ED44
:10651000000AC9ED007A214607A8C7ED000A12F06B
:10652000E3FC012DE8D1364B0493DFF8F4B0DFF83B
:10653000F4A0DFF8F490334EDFF8F08000230593E9
:10654000049DBDF8147003950024DBF80020039B24
:10655000DAF80010F3EC016A2B4D039307EE902A52
:10656000F8EEE77A07EE101AF4EEE67AB8EEC77A9C
:10657000F1EE10FA88BFF0EE667AF4EEC77AF1EE2B
:1065800010FAB8BFF0EE477AFDEEE77A40F2171343
:1065900017EE900A0093002316F0DEF91B4AB9F8B3
:1065A0000030117895F800C0194D3288C0B213FB45
:1065B000071135F8100001901BB214FB02C20093C2
:1065C000B6F9003009B212B2013440460EF0E2F8DA
:1065D000182CBAD1059B049A01338032182B0593ED
:1065E0000492ADD116F0D4FB0A4B18600DF2A46DE5
:1065F000BDE8F08FB8640020C06400204C73002018
:10660000D0640020786000203560002034600020D5
:10661000A44E0400F47000201C600020B46400202C
:10662000046000200C60002076600020B4A00020F0
:10663000F0B5414B4148424F424D83B00126002105
:106640001E700CF0D5FF31463C4810F01DF9314664
:106650000920002419F0B2FE00210D2019F0AEFE31
:106660002146042019F0AAFE234622462146384638
:10667000009405F0CDFF384605F034FD214610208A
:1066800019F0BCFC2146112019F0B8FC214612205B
:1066900019F0B4FC2146132019F0B0FC284606F08E
:1066A0005DF8294F29492A4A2A482B4B00940E703D
:1066B000147004601C603C702849294A29482A4B00
:1066C0002A4FDFF8DCC00C7014703146224604708B
:1066D0001C7028463C6080238CF8004005F098FF31
:1066E0002246284600948023022105F091FF22468D
:1066F000284680230321009405F08AFF284605F0F0
:10670000F1FC1B4D1B481C491C4A1D4B2C7004708E
:106710000C7014601C601B4F1B4E1C4D1C481D4907
:106720001D4A1E4B3C6034602C6004600C70147079
:106730001C7003B0F0BD00BFA9640020B4A000200D
:10674000246400203C640020A86400209F64002092
:10675000A264002038710020D4700020AA640020B8
:10676000AD640020AF640020A564002040710020CB
:1067700097640020986400209964002048710020EC
:1067800044710020EC700020E8700020C8700020E8
:10679000C4700020A0640020AB640020946400203A
:1067A000E470002000000000F0B583B0044616F04D
:1067B000EFFA0A2C05461FD0082C01D003B0F0BD1B
:1067C000A74B1B78002BF9D1A64CA74A2368126867
:1067D000C31A9342F2D9A54B1B78002B00F07E819F
:1067E000A34E3368013B032B00F24982DFE813F02C
:1067F000F601EC01E201D1019E4C236893B39E4A5D
:106800001268C31A93422DD89C4C23682BB19C4A22
:106810001268EB1A934240F29D800E2019F01CFD85
:1068200080B26D2862D9DB2840F2C580B0F5A57F23
:10683000C0F00F81B0F5DC7FC0F0FB8140F2252372
:10684000984240F2FC81B0F5257FC0F0FB818D4974
:1068500040F201329042A1F10C0396BF194607267F
:10686000062645E0884B1B784BB1884E3368013BC8
:10687000032B00F2FA81DFE803F0C4BAB0A11420C0
:1068800019F0EAFC07EE900AF8EE677A17EE900A24
:106890001AF01CF970A3D3E900231AF06FF91AF06B
:1068A00045FC9FED7B7A07EE900AF4EEC77AF1EE95
:1068B00010FA80F2B3804FF4A070642300934FF479
:1068C000D27200234FF4A07116F046F8714AC3B299
:1068D000A2FB03231B09013B042B00F2BE81DFE86E
:1068E00013F0500148014001AF00AF006A49002693
:1068F0006A486B4F16F056F96A4B6B4953F82630CD
:106900006A4EC3F3C42003F01F0200EB0010C3F370
:106910004513C0EB401002EB021200F1170CC2EB62
:10692000421203EBC31003EB4000173292092130EF
:106930004FEA9C1380093A60D2B20092DAB20B603F
:106940003060C3B204215A4805F062FE584805F091
:10695000C9FB2560574C584B22681B68AA1A9A42FB
:106960007FF62CAF554A5649564E0968176832686B
:10697000002BB8BF07339142A1EB07004FEAE303B6
:1069800090FBF3F301DD974245DB4F48017881F03E
:106990000101017001B95B42D0180023C2B200931B
:1069A00005213060424805F033FE414805F09AFB6E
:1069B000256003B0F0BD4549012699E700238022F8
:1069C000009219461A463A4805F022FE0323336026
:1069D0003748256005F086FB16E7002280233448FF
:1069E0000092114605F014FE02233360F0E7002107
:1069F00080232F480091702205F00AFE01233360A6
:106A0000E6E700272A48009739466023802205F0F0
:106A1000FFFD3760DCE72C490978BBE7DFED2C6A26
:106A20009FED2C7A67EEA67AF4EEC77AF1EE10FAB3
:106A300088BFF0EE477AFDEEE77A17EE900A3CE762
:106A40000023802200921A481A46194605F0E0FDFC
:106A5000BEE7214902264BE7CDCCCCCCCCCC1C40A8
:106A6000A8640020107100202C6000209C6400208D
:106A7000286000202C710020686000202471002014
:106A800050600020186400209D6400206460002095
:106A9000CDCC4C45CDCCCCCCC4630020BC9D0020DB
:106AA000D8700020EC420400E0700020DC70002070
:106AB0003C6400201C7100204060002048600020E1
:106AC000446000203C6000209E640020D0630020D1
:106AD0000000C83D0000D243DC630020142019F000
:106AE000BBFB07EE900AF8EE677A17EE900A19F0F2
:106AF000EDFF72A3D3E900231AF040F81AF016FB59
:106B00009FED657A07EE900AF4EEC77AF1EE10FA7F
:106B1000C0F29280DFED616A9FED617A67EEA67A3E
:106B2000F4EEC77AF1EE10FA88BFF0EE477AFDEE88
:106B3000E77A17EE900A642300934FF4D272002391
:106B40004FF4A07115F008FF564AC3B2A2FB03230D
:106B50001B09013B042B78D8DFE803F0635B534A41
:106B60004A000022504800921146802305F050FD53
:106B70002EE700214C4800918023702205F048FD4B
:106B800026E70021484800916023802205F040FD5F
:106B90001EE700238022009219461A46434805F05A
:106BA00037FD032333604148256003B0BDE8F04062
:106BB00005F098BA002280233C480092114605F067
:106BC00027FD02233360EEE7002180233748009140
:106BD000702205F01DFD01233360E4E700273348F0
:106BE000009739466023802205F012FD3760DAE70E
:106BF0000023802200922D481A46194605F008FD10
:106C0000D1E70022294800921146802305F000FDBB
:106C1000C9E70021254800918023702205F0F8FC87
:106C2000C1E70021214800916023802205F0F0FC9B
:106C3000B9E71F4903265BE64FF4A0707BE71D49C7
:106C4000042655E61C49052652E600231748009302
:106C50001946802205F0DCFCA5E7002312480093CA
:106C60001946802205F0D4FCB2E6002300931946B1
:106C70000D48802205F0CCFC04233360A8E60023F5
:106C8000009319460948802205F0C2FC04233360B2
:106C900089E700BFAFF30080CDCC4C450000C83D74
:106CA0000000D243CDCCCCCC3C6400202464002036
:106CB000E8630020F463002000640020CDCCCCCC3D
:106CC000CCCC1C4038B5194D16F062F8184A2B6828
:106CD0001268C31A9342044609D9164B197881F0F9
:106CE00001011970E1B90D2019F068FB2C60124DFB
:106CF000124A2B681268E31A93420BD9104A0D49C5
:106D00001378097883F00103137021B9042019F076
:106D100055FB2C6038BD0121042019F04FFBF8E72A
:106D200001210D2019F04AFBE0E700BF1871002097
:106D30003060002096640020147100202460002040
:106D40009564002070B516F023F83D4B1978D1B941
:106D50003C4D3D4A2B681268C31A9342044611D930
:106D60003A4E3368022B5FD0032B53D0012B47D010
:106D7000132019F043F92021122019F03FF90323C1
:106D800033602C6070BD324B1B68013B032B55D820
:106D9000DFE803F002141A242021102019F02EF944
:106DA0000021112019F02AF90021122019F026F9EA
:106DB000BDE870400021132019F020B920211020D7
:106DC00019F01CF92021ECE72021102019F016F908
:106DD0002021112019F012F92021E6E720211020AE
:106DE00019F00CF92021112019F008F920211220A6
:106DF00019F004F9BDE870402021132019F0FEB805
:106E0000102019F0FBF82021132019F0F7F80423C3
:106E10003360B6E7122019F0F1F82021112019F0A3
:106E2000EDF802233360ACE7112019F0E7F82021D8
:106E3000102019F0E3F801233360A2E70021ACE74A
:106E4000A8640020287100205460002030710020C8
:106E5000387100200000000070B588B005460C466F
:106E600002A8374915F086FD142019F0F5F907EE50
:106E7000900AF8EE677A17EE900A19F027FE2EA313
:106E8000D3E9002319F07AFE1AF050F99FED2D7A1C
:106E900007EE900AF4EEC77AF1EE10FA45DBDFED6B
:106EA0002A6A9FED2A7A67EEA67AF4EEC77AF1EEA7
:106EB00010FA88BFF0EE477AFDEEE77A17EE900AF7
:106EC000642300934FF4D27200234FF4A07115F0A5
:106ED00043FDC6B20A22314605A815F0B3FD05A947
:106EE00002A815F085FE05A815F054FE092E1FDD39
:106EF000642EB4BF0823002302A905A81D4415F081
:106F000053FD1348134A42610123EDB2E4B205A9CF
:106F1000C3760582448215F047FC05A815F03AFEB9
:106F200002A815F037FE08B070BD4FF4A070C7E797
:106F30000E23E1E7AFF30080CDCCCCCCCCCC1C4011
:106F4000983B0400CDCC4C450000C83D0000D24326
:106F5000B4A000207F9E7F9E2DE9F04FDFF8849340
:106F6000A7B015F015FFCA4AD9F800301268C31A45
:106F70009342044640F27E81C64DC74BC74EC84F70
:106F8000C84AA5FB0015AD0903FB05F3A6FB0516D2
:106F9000A7FB0517B2EB730F4FEA56164FEAD72738
:106FA00080F00982C04B9C4280F0A9814EF65F239D
:106FB0009C4200F23D82BD491DA815F0DBFC0A226F
:106FC00039461AA815F03EFD1AA91DA815F056FE5F
:106FD0000DF1800A0146504615F0E6FC4FF0010B1A
:106FE000514623A815F0E0FCB14923A815F072FE24
:106FF000092E804640F3CB8117AF314638460A222E
:1070000015F020FD00264046394615F037FEA94907
:1070100015F060FE092D804600F38A81A3490BA874
:1070200015F0A8FC0A22294608A815F00BFD08A9AE
:107030000BA815F023FE01460EA815F0B5FC0EA90D
:10704000404615F01BFE0DF114080146404615F0B0
:10705000ABFC0EA815F09EFD08A815F09BFD0BA833
:1070600015F098FD384615F095FD002E40F078811A
:1070700023A815F08FFD504615F08CFDBBF1000FD5
:1070800040F07E818C4DDFF860A23A230021192266
:10709000CDE9002128461A46B4210DF07BFB41467C
:1070A00023A815F081FC854B854A2B6101236A6179
:1070B000EB7623A9284615F077FB23A815F06AFD87
:1070C000DAF8000019F0F0FC7E4B002219F056FDB2
:1070D0006DA3D3E9002306460F4619F0CBFF10B984
:1070E00069A7D7E900673946304619F0F7FF7649B6
:1070F000764B024603EA02230868039319F0D4FC96
:10710000704B002219F03AFD5FA3D3E90023064635
:107110000F4619F0AFFF10B95BA7D7E900673946F2
:10712000304619F0DBFFDFF8C4B1039AC00000F469
:10713000FC631A43DBF80000039219F0B5FC614BC5
:10714000002219F01BFD50A3D3E9002306460F4689
:1071500019F090FF10B94CA7D7E9006739463046BF
:1071600019F0BCFF039B43EAE00080B24C23CDE959
:10717000003027223A23504801210DF00BFBDAF8AA
:10718000000019F091FC4F4B002219F0F7FC3EA3D0
:10719000D3E9002306460F4619F06CFF10B93AA751
:1071A000D7E900673946304619F098FF464A474B01
:1071B0008246106803EA0A2A19F076FC414B002245
:1071C00019F0DCFC30A3D3E9002306460F4619F082
:1071D00051FF10B92CA7D7E900673946304619F09E
:1071E0007DFFC00000F4FC63DBF800004AEA030AFC
:1071F00019F05AFC334B002219F0C0FC22A3D3E94A
:10720000002306460F4619F035FF10B91EA7D7E92F
:1072100000673946304619F061FF4AEAE00080B263
:107220003723CDE90030932223483A2301210DF082
:10723000B1FA18234FF2B372CDE900321E483A2357
:10724000772201210DF0A6FA214923A815F0ACFB05
:10725000204B2B610022012323A96A61EB7616489B
:1072600015F0A2FA23A815F095FC4046C9F8004095
:1072700015F090FC184B1B78002B3DD0174D184A89
:107280002B6835E0AFF300800000000000E06F40A5
:107290004C600020D34D6210CDCCCCCC898888883E
:1072A000C5B3A2919999991980EE3600CCB2040029
:1072B000EC3A0400F03A0400B4A00020B9004B00FE
:1072C0007F9E7F9E0000FC3FDC70002000F8FFFFE7
:1072D000BC9D002006008A00A364002000710020ED
:1072E0005860002020710020E0700020D87000203D
:1072F0001268E31A934275D827B0BDE8F08F4F4A61
:10730000A7EB071306EB83039442A6EB061605EBE7
:10731000860598BF1E467FF64EAE0DF1800A3946AF
:1073200050460A221E464FF0000B15F08BFB57E625
:107330000A2229460EA815F085FB0EA9404615F035
:107340009DFC0DF114080146404615F02DFB0EA8DA
:1073500015F020FC384615F01DFC002E3FF488AED9
:1073600011A815F017FC14A815F014FC23A815F0AB
:1073700011FC504615F00EFCBBF1000F3FF482AE3D
:107380001AA815F007FC1DA815F004FC7AE62C4994
:1073900014A815F0EFFA31460A2211A815F052FB95
:1073A00011A914A815F06AFC17AF0146384615F06C
:1073B000FBFA012627E618230022CDE900322148F6
:1073C0001E232322CD210DF0E5F949F67F6348F213
:1073D0001E423221D520FFF73FFD1B4B9C42FFF49C
:1073E000E5AD8CE7194F174E384613F001F900222E
:1073F0002323CDE90032304628232D22FA210DF037
:10740000C9F9B7F9061023A80A2215F01BFB104B87
:10741000104A3361012323A97261F376304615F0D7
:10742000C3F923A815F0B6FB2C6027B0BDE8F08F98
:107430006FF03B0303FB0655BDE500BFFF5025027F
:10744000CCB20400B4A0002080EE36004CA0002096
:10745000FA004B007F9E7F9E194B1B78002B2ED08D
:1074600010B5184B1B7886B063B115F091FC164A25
:10747000164B12681B78801A984201D9FFF71CF846
:1074800006B010BD124C01932823204600935022D1
:10749000462396210DF07EF90E4903A815F06AFAED
:1074A0000D4B0E4A236103A9012320466261E37656
:1074B00015F07AF903A815F06DFB06B010BD704702
:1074C000AD640020AE640020F470002075600020E0
:1074D000B4A00020F43A04006E00A900C8FEC8FE63
:1074E0002DE9F04F2DED088B83B0824692A3D3E9AE
:1074F000002351EC100B55EC124B57EC116BCDF8EF
:1075000004A019F03BFB8CA3D3E9002380468946F5
:107510003046394619F032FB87A3D3E9002382466F
:107520008B462046294619F029FB04460D46504655
:10753000594622462B4649EC188B45EC194B19F05D
:10754000A3FD002840F09280A046A94655EC184BB8
:1075500018EE102A2B464046494619F095FD10B901
:1075600018EE108AA94657EC196B19EE102A3B4603
:107570005046594619F07EFD54465D4610B919EE45
:10758000104A3D4657EC186B18EE102A3B46204631
:10759000294619F06FFD10B918EE104A3D464246D3
:1075A0004B462046294619F033F9424606460F4617
:1075B0004B462046294619F049FD002859D122465C
:1075C0002B464046494619F021F9554B0022044606
:1075D0000D463046394619F061FD32463B460028DB
:1075E0005ED000204FF0804119F010F902460B46A2
:1075F0002046294619F0ECFB424641EC1B0B4B465A
:1076000051EC180B19F022FD002857D059EC198BBA
:1076100019EE102A4B465046594619F0F7F8224603
:107620002B4619F0D5FB19EE102A04460D464B46A1
:107630005046594645EC1A4B19F012FD38B1394BFA
:1076400020462946002219F0E3F841EC1A0B51ECD0
:107650001A0B354B002219F091FA344B04460D46B3
:10766000002251EC1B0B19F089FA06E0D046D946EE
:107670006CE70020002104460D46019B0022C3E96F
:107680000045C3E902011C463046294B394619F032
:1076900075FAC4E9040103B0BDEC088BBDE8F08FB6
:1076A0002046294619F094FB424641EC1B0B4B4601
:1076B00051EC180B19F0CAFC0028A7D142464B46E2
:1076C0005046594619F0C2FCC0B951EC190B42465C
:1076D0004B4619F0BBFC0028B9D052465B4651EC32
:1076E000180B19F093F822462B4619F071FB114B39
:1076F000002219F08DF841EC1A0BA8E753EC182B77
:1077000051EC190B19F082F822462B4619F060FB58
:1077100000224FF0804319F07BF841EC1A0B96E7FA
:107720000000F03F0000184000004E4000005940AB
:107730000000494000001040101010101010703F61
:107740002DE9F04F2DED0A8BDFF888B01D4D99B073
:1077500015F01EFBDBF800302C68C01AA0423BD8A5
:1077600015F016FBDBF80020174B184E801A83FB30
:107770000412E417C4EBA214A3FB00103268A4EBBC
:107780009014944208D02A6883FB0213D217C2EBEC
:10779000A3139C42C0F2F6830D48002104F05EFF63
:1077A00020B919B0BDEC0A8BBDE8F08F084804F091
:1077B000D5FF074804F096FC19B0BDEC0A8BBDE874
:1077C000F08F00BF6C600020D34D62103871002034
:1077D000246400200871002000242C23CDE900340B
:1077E000CC48CD4E3B238722AF2146250CF0D2FF5B
:1077F000C8481C231F22C621CDE900540CF0CAFF43
:10780000C4481E231F224A21CDE900540CF0C2FFB8
:107810005F23CDE90034BF481B2387224A210CF0A7
:10782000B9FFFF23BD48009321461A4604F0F0FE3D
:10783000BA4804F057FC30460FF0EAFA322015F04F
:10784000B3FA30460FF0E4FA0028F7D00DF11E032A
:1078500000930DF11A0207AB06A9AF480FF004FB25
:10786000BDF81810BDF81A20BDF81C30FF2940F2F1
:1078700082839A4238BF1A468A424FF0FF044FF083
:10788000000338BF0A46084600941946059215F0D1
:1078900063F8002305461946059ABDF81A000094BE
:1078A000ADF8185015F058F8002305461946059A0A
:1078B000BDF81C000094ADF81A5015F04DF8BDF855
:1078C0001810ADF81C00092940F2CA8363298CBF47
:1078D0004E2556258F4C0A2214A815F0B3F8904A6D
:1078E00062610123302014A96082E376258220465C
:1078F00014F05AFF14A815F04DF9BDF81A10092913
:1079000040F2AC8363298CBF4E2656260A2214A867
:1079100015F098F84A25824A6261012314A9E3769A
:107920007C482682658214F03FFF14A815F032F9D6
:10793000BDF81C10092940F2A78363298CBF4E268D
:1079400056260A2214A815F07DF86325744A626150
:107950000123E37614A9268265826E4814F024FF81
:1079600014A815F017F9BDF81860304619F08CF816
:10797000BDF81A5002460B46284643EC182B19F066
:1079800083F8BDF81C70024638469046894619F0C7
:107990007BF8B0EE480AF0EE680A14AB41EC120B2B
:1079A00041EC1A0B49EC118B1846FFF799FD49EC95
:1079B000198BDDE914895B4B00224046494619F0DA
:1079C0004FFB002840F05D83574B0022404649465C
:1079D00019F046FB002814BF4FF0D30A4FF0CB0A32
:1079E0004946404619F07AFB0A22014611A815F0D3
:1079F00029F84B4A1199626101234FF0300CE3766C
:107A0000A4F812C04348A4F810A014F0F1FE11A885
:107A100015F0C0F8DDE91689424B00224046494680
:107A200019F01EFB002840F029833F4B00224046FE
:107A3000494619F015FB002814BF4FF0D30A4FF048
:107A4000CB0A4946404619F049FB0A22014611A8D3
:107A500014F0F8FF324A1199626101234FF04A0C89
:107A6000E376A4F812C02B48A4F810A014F0C0FECE
:107A700011A815F08FF8DDE918892A4B002240463D
:107A8000494619F0EDFA002840F0F582264B002215
:107A90004046494619F0E4FA002814BF4FF0D30AD3
:107AA0004FF0CB0A4046494619F018FB0A2201461E
:107AB00011A814F0C7FF4FF0630C194AA4F812C0C4
:107AC000012311996261E376A4F810A0114814F023
:107AD0008FFE11A815F05EF8144A1549EB0002EA72
:107AE000062203F4FC63134343EAD70308A81FFAF2
:107AF00083FA14F03FFF1022314611A814F0A2FFC0
:107B0000DDF84C8011A815F045F8B8F1010F00F030
:107B10008D820FE0B4A0002024A000202464002067
:107B20007F9E7F9E000024400000594000F8FFFF28
:107B3000983B04003146102211A814F083FF11A9CC
:107B400008A815F077F811A815F024F81022294696
:107B500011A814F077FF139E11A815F01BF8012E41
:107B600000F04C822946102211A814F06BFF11A9D5
:107B700008A815F05FF811A815F00CF81022394686
:107B800011A814F05FFF139D11A815F003F8012D43
:107B900000F01C823946102211A814F053FF11A9DD
:107BA00008A815F047F811A814F0F4FF08A815F07C
:107BB000C9F8C94EC94B2361012508996661C848B7
:107BC000E57614F015FE1022514611A814F03AFF84
:107BD00011A908A815F00CF811A814F0DBFF08A8EB
:107BE00015F0B0F8BF4911A814F0C4FE08A911A8F7
:107BF00015F044F8014608A814F0D4FF11A814F0B9
:107C0000C9FFB94B089966612361B548E57614F060
:107C1000EFFDABA3D3E9002351EC180B18F0AEFF36
:107C2000A7A3D3E9002306460F4651EC190B18F021
:107C3000A5FFA3A3D3E9002341EC180B51EC1A0BC9
:107C400018F09CFFB046B94606460F4653EC182B79
:107C50004046494619F018FA47EC1A6B49EC198B63
:107C600046464F46002800F0838159EC1A8B1AEEE5
:107C7000102A4B463046394619F006FA002800F023
:107C8000738132463B469949002018F0BFFD984B5E
:107C9000002218F073FF8CA3D3E9002380468946A5
:107CA0003046394619F0FAF9002840F0DE8100220A
:107CB00000233046394619F0F1F9002814BF562543
:107CC0004E254946404619F009FA0A22014611A8F4
:107CD00014F0B8FE4FF0E40C7F4AA4F812C0012360
:107CE00011996261E3767E48258214F081FD11A826
:107CF00014F050FF32463B467C49002019F068F8EA
:107D000053EC182B41EC180B3046394618F07EFD29
:107D100053EC182B18F032FF754B00228046894631
:107D200018F02CFF49EC1B8B53EC192B804689462D
:107D30003046394618F06AFD53EC182B18F01EFF38
:107D40006B4B002249EC1C8B8046894618F016FFCD
:107D500049EC198B53EC1A2B80468946304639463C
:107D600018F054FD53EC182B18F008FF604B00225C
:107D700049EC1A8B8046894618F000FF54A3D3E9DA
:107D8000002306460F4651EC190B19F069F900283B
:107D900040F06F8151EC190B544B002219F060F93F
:107DA000002814BF56254E2551EC1A0B19F096F9F0
:107DB0000A22014611A814F045FE474A1199626152
:107DC00001234FF0960CE376A4F812C044482582B4
:107DD00014F00EFD11A814F0DDFE3DA3D3E900233D
:107DE00051EC1B0B19F03CF9002840F0408151EC9C
:107DF0001B0B3E4B002219F033F9002814BF562507
:107E00004E2551EC1C0B19F069F90A22014611A804
:107E100014F018FE304A1199626101234FF0B00C42
:107E2000E376A4F812C02E48258214F0E1FC11A8D4
:107E300014F0B0FE26A3D3E900234046494619F0CA
:107E40000FF9002840F00E814046284B4946002299
:107E500019F006F9002814BF4FF056084FF04E08ED
:107E60003946304619F03AF90A22014611A814F0B1
:107E7000E9FDCA25184A119962610123E376184881
:107E8000A4F81080658214F0B3FC11A814F082FEEF
:107E900015222A23CDE9012A11480093BD2271231E
:107EA000BA210BF075FD13480EF09CFD002848D058
:107EB000092840F3EB806328CCBFF025F8251BE0B0
:107EC000101010101010703FCDCCCCCCCCCCEC3FAF
:107ED0009A9999999999B93F7F9E7F9EB900B00070
:107EE000B4A000200C3B0400B90096000000F03F55
:107EF0000000594024A000200A2201460BA814F0DB
:107F00006DFD0BA90EA814F04FFD61490EA814F0E9
:107F1000E1FE014611A814F047FD00220123E120F3
:107F200011A96261E376608225825A4814F03CFC14
:107F300011A814F02FFE0EA814F02CFE0BA814F0BC
:107F400029FE554804F00AFC534804F0CBF814F01D
:107F50001FFF034608A8CBF8003014F01BFE19B031
:107F6000BDEC0A8BBDE8F08F1AEE106A4F4688E62A
:107F700057EC186B79E6FF2A3FF67BACFF2B7FF6B8
:107F8000A2AC76E4434D34604FF6C8621223CDE9CB
:107F9000003225212846072337220CF0FBFB3168ED
:107FA00000297FF7F9AB14A80A2214F04BFD3B4BD4
:107FB0002B610022012314996A612846EB7614F0A4
:107FC00017FC14A814F0E6FDFFF7E6BB344911A82E
:107FD00014F0D0FC102239460EA814F033FD0EA97F
:107FE00011A814F04BFE014608A814F023FE0EA8B9
:107FF00014F0D0FD11A814F0CDFDD7E5284911A843
:1080000014F0B8FC102229460EA814F01BFD0EA98E
:1080100011A814F033FE014608A814F00BFE0EA8B8
:1080200014F0B8FD11A814F0B5FDA7E51C4911A87E
:1080300014F0A0FC102231460EA814F003FD0EA986
:1080400011A814F01BFE014608A814F0F3FD0EA8B9
:1080500014F0A0FD11A814F09DFD77E55C2655E411
:108060005C2537E44FF05C08FAE65C2529E65C25E0
:10807000C7E65C2598E64FF0D90A13E54FF0D90A18
:10808000DFE44FF0D90AABE45C265AE4FE2533E77F
:10809000103B0400B4A00020246400202500470009
:1080A000CCB204002DE9F04784B04B2ABDF8307003
:1080B00004460D461E4600F061822ADC322A00F397
:1080C000DC80132A40F3C580143A1E2A00F257813F
:1080D000DFE812F0580155015501550155017301B2
:1080E00055015501550155015501550155015501E0
:1080F000550155015501550155015501B001550175
:1081000055015501550155015501550155015501BF
:108110002701B2F57A7F00F0B48155DD40F24C437F
:108120009A4200F0ED81B2F5966F40F028810FFA87
:1081300081F884B201B24246BD48009603230CF098
:10814000E1FC4FF00309A11C09B2B948019642466F
:108150004B46CDF800900391ADB20CF01BFB039998
:10816000B3483B4642460CF0B5FEAA1C211DB04860
:1081700012B209B23B460CF0ADFEA11DAC4809B2EB
:108180004B464246CDE9009601350CF003FB2DB27B
:10819000E11DA7482A4609B23B460CF09BFE04F1BC
:1081A0000A014246A248CDF800904B46019609B21A
:1081B0000CF0F0FA0B342A4621B29D483B4604B03D
:1081C000BDE8F0470CF086BEB2F5487F00F0FC81B8
:1081D000B2F5617F76D10FFA81F8009301B2424681
:1081E000022384B292480CF08DFC611C009609B207
:1081F000424602238E480CF085FCA11C8C48009658
:1082000009B2424603230CF07DFC4FF00309211D07
:108210008748019609B242464B46CDF80090013599
:108220000CF0B8FA2DB2611D2A4609B23B468048CF
:108230000CF050FE04F10801CDF800904B46424688
:1082400009B27B48019609340CF0A4FA2A4621B2FF
:10825000B3E712F1140F00F05B81002A40F08F8029
:1082600003230AB2CDE9003601B271480CF092FA4C
:108270006A1C611C12B209B29FE73C2A7FD101F14E
:1082800001080FFA88F8022301B22DB26848009362
:108290004246032301960391A4B20CF07BFA0399A2
:1082A00063482A4633460CF015FE611D03232A4617
:1082B0005F48019609B200930CF06CFA063442460E
:1082C00021B27AE7642A5AD10FFA81F984B24FF0C9
:1082D000030801B2009356484A4603230CF012FCEF
:1082E00004EB08015248019609B24A464346CDF8CC
:1082F000008001350CF04EFA2DB2211D4C482A4663
:1083000009B23B460CF0E6FDE11D4A464848CDF86F
:1083100000804346019609B20CF03CFA08342A4624
:108320004AE70FFA80FA0FFA81F94FF0030884B296
:1083300051463F4801964A464346CDF800800CF02E
:1083400029FAA11C09B24A463948ADB23B460CF0A5
:10835000C1FDAA1C514612B235483B460CF0BAFD8D
:10836000611D4A4609B23248CDF800804346019665
:108370000CF010FA0135A11D2AB209B21DE704B0B4
:10838000BDE8F0870FFA85F94FF0030801B24A46BD
:10839000274801964346CDF800800391A4B20CF023
:1083A000F9F9ADB2039922484A463B460CF092FDDA
:1083B000AA1CA11C12B209B2CEE70FFA85F94FF040
:1083C000030A01B24A461A4801965346CDF800A066
:1083D0000391A4B20CF0DEF90235039914483B4630
:1083E0004A460CF077FD2DB2A11C04F104082A4680
:1083F00009B23B460E480FFA88F80CF06BFDCDF839
:1084000000A05346019641464A4609480CF0C2F97D
:10841000A11D4A463B46064809B20CF05BFD0448E4
:108420003B462A46414604B0BDE8F0470CF052BD39
:10843000B4A000200FFA81F884B201B24246764817
:10844000009602230CF05EFBA11C7348009609B253
:108450004246032301350CF055FB2DB2611C6E48DA
:108460002A4609B233460CF035FD611D032342460E
:108470006948019609B200930CF08CF906342A463B
:108480009AE60FFA81F984B24FF0030801B2009323
:1084900061484A4603230CF035FB04EB08015E48B3
:1084A000019609B24A464346CDF8008001350CF0EA
:1084B00071F92DB2211D58482A4609B23B460CF0ED
:1084C00009FDE11D544809B243464A46CDE90086FC
:1084D0000CF060F904F108014F482A4609B23B4606
:1084E0000CF0F8FC04F10B014A464B48CDF8008033
:1084F0004346019609B20CF04DF90C342A465BE66E
:108500000FFA81F800964246032301B284B271E665
:108510001FFA81F909F101080FFA88F884B201B253
:1085200000933D48424602230CF02CFA0FFA85FADC
:10853000E11C032509B23848019652462B460095A6
:1085400003910CF027F9039933483B4652460CF04F
:10855000C1FC611D09F102022F4812B209B23B466B
:108560000CF0B8FCE11D52462B4800952B460196B5
:1085700009B20CF00FF908344246A1E60FFA81F96E
:1085800084B28DB2009301B24A46234803230CF013
:10859000F9F96A1CA11C204812B209B2334602350F
:1085A0000CF098FC2DB2611C2A4609B233461A48D9
:1085B00004F104080CF08EFC0FFA88F803230196EE
:1085C00041464A46009320E74FF003080FFA81F92D
:1085D00084B201B201931048CDF800804A46434668
:1085E0000CF0D8F8211D0C4809B243464A46CDE9A3
:1085F000008601350CF0CEF82DB2611C2A4609B276
:108600003B4605480CF066FC04F10801CDF80080FB
:1086100043464A4614E600BFB4A000202DE9F047C7
:10862000012882B004460D4607D0022800F0AE8033
:10863000002858D002B0BDE8F087BC4E3378002B3C
:10864000F8D1DFF8148314F0A3FBB94BD8F800205D
:108650001B68801A9842EDD3DFF80093B54BD9F828
:1086600000701B689F4207F13D0AC0F27D8140F314
:10867000F680B14C236853450FFA8AF100F08E81E1
:108680006368534500F08A81A2684FF6C86352457B
:1086900018BF00230093A9480F239F220CF032FA41
:1086A00023683E370AF101019F4209B200F073814D
:1086B00063689F4200F06F81A2684FF6C8639742DB
:1086C0000CBF1F4600270F239C4800979F220CF0E9
:1086D00019FAD9F80030013BC9F8003014F058FB02
:1086E000C8F80000A6E7964C2378002BA2D1954F3E
:1086F00014F04EFB8E4B3A681B68801A984299D34F
:10870000DFF85C92904BD9F800601B689E4206F13E
:108710003D08C0F2FC8040F38280874C23684345CB
:108720000FFA88F100F040816368434500F03C8116
:10873000A2684FF6C863424518BF002300937F48E4
:108740000F2371220CF0DEF923683E3608F1010197
:108750009E4209B200F0258163689E4200F02181AB
:10876000A2684FF6C86396420CBF1E4600260096CC
:108770000F23712271480CF0C5F9D9F80030013B84
:10878000C9F8003014F004FB386053E76F4C2378CD
:10879000002B7FF44FAF6E4F14F0FAFA644B3A6837
:1087A0001B68801A9842FFF445AFDFF8B891694B17
:1087B000D9F800601B689E4206F13D08C0F2908027
:1087C0006DDD5D4C236843450FFA88F100F0F280BF
:1087D0006368434500F0EE80A2684FF6C8634245E7
:1087E00018BF0023009355480F23CD220CF08AF9BF
:1087F00023683E3608F101019E4209B200F0D7809D
:1088000063689E4200F0D380A2684FF6C863964228
:108810000CBF1E46002600960F23CD22AAE7B1D139
:108820001FFA88F54FF6FF76691E4448009609B294
:108830000F2371220CF066F9404800960FFA88F178
:108840000F2371220CF05EF9691C0F233B48009640
:1088500009B271220CF056F90123237092E77FF4DC
:108860003DAF1FFA8AF54FF6FF77691E3348009730
:1088700009B20F239F220CF045F9304800970FFAF8
:108880008AF10F239F220CF03DF9691C2B480097B9
:1088900009B20F239F220CF035F934701EE77FF4E4
:1088A00071AF1FFA88F54FF6FF76691E23480096D0
:1088B00009B20F23CD220CF025F9204800960FFABB
:1088C00088F10F23CD220CF01DF9691C0F231B48E2
:1088D000009609B2CD220CF015F90123237051E75F
:1088E0000FFA88F10F23CD22144800950CF00AF9F5
:1088F00006F13C0109B200950F23CD220F480CF080
:1089000001F9D9F800300133C9F800303AE70FFA1D
:1089100088F10F237122094800950CF0F3F806F155
:108920003C0109B200950F237122E7E7A064002003
:1089300020600020EC70002010600020B4A0002017
:10894000AB6400200C71002048710020946400206A
:10895000F0700020C8700020FC700020E87000203B
:1089600044710020C4700020144800950FFA8AF169
:108970000F239F220CF0C6F807F13C010F230F488C
:10898000009509B29F220CF0BDF8D9F800300133F0
:10899000C9F80030A2E64FF6C86794E64FF6C86300
:1089A00078E64FF6C866E2E64FF6C863C6E64FF6CD
:1089B000C86630E74FF6C86314E700BFB4A00020D4
:1089C000CB4B1B7803B970472DE9F04F2DED028B8F
:1089D000DFF86C8389B014F0DBF9C64BD8F80020BF
:1089E0001B68801A984240F23381C34B1D78002DDA
:1089F00040F04281C14BDFEDC28A1B78002B40F072
:108A000054819FEDBF8ABF4ED6ED007AF4EE687AAE
:108A1000F1EE10FA71D0F2EE047A68EEA77AF5EE74
:108A2000C07AF1EE10FA17EE900AC0F2448118F005
:108A30004DF8B54B002217F0EBFE18F04FFB18F085
:108A400033F8A5A3D3E9002318F098F818F06EFBCB
:108A5000AE4CDFF8F092844600272A231F22CDE98E
:108A600000372046C6F800C0212350210BF092FEAB
:108A700096ED000A022102A814F018F8049902A841
:108A8000013914F057F90126A14B23610299C4F86A
:108A900014902046E67613F0ABFE18EE900A18F01C
:108AA00015F88FA3D3E9002317F0B2FE18F016FBD8
:108AB0000A22014605A813F0C5FF964B05992361CC
:108AC000C4F814902046E67613F092FE05A814F040
:108AD00061F8FDEEE87AF7223B4600926FF0130151
:108AE0003C2217EE900A13F037FF8B498B4B0F7027
:108AF000024602A81A6014F04DF8894FDFF8489238
:108B0000D7ED007AF4EE487AF1EE10FA0CD1D9F8EC
:108B10000030AB4208D114F03BF9C8F8000009B0AE
:108B2000BDEC028BBDE8F08FB2EE040A28EE008A9D
:108B3000C9F80050B5EEC08AF1EE10FA18EE100A2E
:108B400076DB17F0C3FF704B002217F061FE18F0C0
:108B5000C5FA17F0A9FF60A3D3E9002318F00EF8B7
:108B600018F0E4FA694CDFF8DCB1844600262A23C9
:108B7000CDE900361F22C7F800C02046C3210BF004
:108B800009FE97ED000A02A8022113F08FFF049955
:108B900002A8013914F0CEF84FF0010A614B029996
:108BA0002361C4F814B084F81BA0204613F020FE03
:108BB000D9F800302946B3F57A7F4FF00A0205A8AC
:108BC000B4BFD225CA2513F03DFF4823059963821F
:108BD0002582C4F814B084F81BA0204613F008FEC8
:108BE00005A813F0D7FFD7ED007AFDEEE77AF7245A
:108BF00017EE900A334631460094642213F0ACFE1F
:108C0000494B009402461A60D9F8000033464FF4ED
:108C100096624FF4487113F09FFE01464348444A60
:108C2000444B067002A811601E7013F0B3FF72E788
:108C300017F04CFF344B002217F0E8FD18F04EFA05
:108C400017F032FF24A3D3E9002317F097FF87E73B
:108C50004CF2D2510020FFF7E1FC48F21E41012006
:108C6000FFF7DCFC4CF67B510220FFF7D7FC09B084
:108C7000BDEC028BBDE8F08F2F480EF0BBFF2E48F5
:108C8000F0EE408A0FF00CF810EE100A17F01EFFFD
:108C900015A3D3E9002317F071FF18F01FFA174B43
:108CA0001B780546002B3FF4ACAE24480FF038FA91
:108CB000B0EE408AA7E617F009FF134B002217F029
:108CC000A5FD18F00BFA17F0EFFE03A3D3E900237C
:108CD00017F054FFBAE600BF9A9999999999B93F4C
:108CE00066666666661271407B14AE47E17A843F21
:108CF000AA64002038600020AC640020A164002039
:108D000000000000BC6400200000E03FB4A0002090
:108D100056002E005A004800AB6400204871002025
:108D2000B0640020CC002E00EC700020A064002075
:108D3000C87000209464002074A000203CA0002093
:108D4000F87000207F9E7F9EC07000202DE9F04FBC
:108D500085B0344EDFF8D880DFF8D8A003914227E1
:108D6000834611E0039B2AB2CDE900C30D230BF02B
:108D700011FD3388A8F800302B4B02360F37B34271
:108D8000BFB208F1020846D0BBF1000FB6F90040AF
:108D900009DD94FBFBF4A40124B2402CA8BF4024BD
:108DA00024EAE4743480B8F90050A542E4D0AAB2B1
:108DB0001FFA84FE1546A2EB0404AEEB020C23B2AC
:108DC0000FFA87F9C2F1A30205F1A3054FEA4C0C93
:108DD000029312B24FF00D0349465046A5EB0E0523
:108DE0000FFA8CFCA4B2BDDB00250195029D009515
:108DF0000BF0D0FC32880134002324B2A33201935B
:108E000000940D23494612B250460BF0C3FC338840
:108E1000A8F80030B0E7054B00221A7005B0BDE895
:108E2000F08F00BF7464002094640020A6640020CA
:108E300054640020B4A000202DE9F043A44D2B6819
:108E4000002B87B00ADCA34B1C78002C74D0A24CFA
:108E50002378002B66D107B0BDE8F0839F4F13F055
:108E600097FF9F4B3A681B68801A98427BD89D48B1
:108E70004FF480710FF09CFD00284ED199489A4C18
:108E8000012303F00702012A4FEAE30130F9022F20
:108E900035D0002A34F81160B8BF52420133324451
:108EA000802B24F81120ECD18F4F00264FF0400882
:108EB00012E0B7F90000CDF800800CFB000013F0C1
:108EC0004BFD002825DB4028A8BF402000B20F2E14
:108ED000388022D00136023700234FEA660C322256
:108EE0001946002EE5D1CDF80080B4F900003346D4
:108EF000314613F031FD0028E5DA3E80EAE7002A2A
:108F000003F10103B8BF5242802B24F81120B8D1DD
:108F1000CAE700200F2E3880DCD16F4C01220023DD
:108F200022702B604DF6B5610020FFF70FFF002384
:108F3000237007B0BDE8F0836C4903A813F01AFD55
:108F40006B486C4B43614FF07812012303A9026117
:108F5000C37613F029FC03A813F01CFE5E4B1C70B3
:108F600007B0BDE8F083644E47F230544FF47A699D
:108F70004FF0000804E016F08BFEB9F1000F21DD80
:108F80002B68002BF7D02B68002BF4D02B68002B1C
:108F900040F38F80534909F1FF39002331F9022B47
:108FA00028689442A9EB030CA8BF144601339642EB
:108FB000B8BF16469842F1DCE146B9F1000FC5F89A
:108FC0000080DDDC301B17F06FFD41EC100B11F061
:108FD0002BFD3DA3D3E9002351EC100B17F0CEFD80
:108FE00018F07CF800221223CDE900320446162343
:108FF0003F48202256210BF0CDFB092C5BDD642C71
:10900000B4BF4FF05E094FF05609394EDFF8F080DB
:109010000A22214603A813F015FD3023354A738236
:109020000123F37603A97261A6F81090304613F07D
:10903000BBFB03A813F0AEFDD8F800309C4202DC65
:109040002E4B1B788BB312230022CDE90032284827
:1090500016232022C9210BF09DFB3B682BB3DFF8C0
:109060009C9099F800304BB3D8F80040092C28DDCB
:10907000642CB4BF4FF0D1084FF0C90821460A2232
:1090800003A813F0DFFC302401231A4AF37603A966
:1090900072611748A6F81080748213F085FB03A84C
:1090A00013F078FD002389F8003013F071FE38606A
:1090B000DDE6CC4680E74FF06409A6E7C8F800403B
:1090C000D4E74FF0D708D9E7CDCCCCCCCCCC3540C9
:1090D0003C710020A7640020A664002004710020D9
:1090E000606000204C71002074640020143B040078
:1090F000B4A000207F9E7F9ED08AFFFFA464002042
:109100003471002010B5044616F052F9204610BD07
:109110002DE9F84FDFF808B3A44CDFF808A3DFF817
:109120000893DFF80883A24EA24FA34D522358465E
:109130000A22062102F086FF22465146584618F0C0
:109140001FFB522348460822012102F07BFF2246E2
:109150005146484618F014FB4FF0FF3340460522B5
:1091600006210DF021FA22469449DFF8C4924046C8
:1091700018F006FB924893494FF000082246C0F8C9
:10918000008018F0FDFA314638460EF091FA22467A
:109190008D49384618F0F4FA31468C480EF066FFD7
:1091A00022468B49894818F0EBFA8A498A4813F01D
:1091B000E1FB22468949884818F0E2FA88492846A6
:1091C00013F0D8FB874905F10C0013F0D3FB864957
:1091D00005F1180013F0CEFB844905F1240013F0CB
:1091E000C9FB834905F1300013F0C4FB814905F147
:1091F0003C0013F0BFFB804905F1480013F0BAFBB7
:109200007E4905F1540013F0B5FB22467C494046E7
:1092100018F0B6FA7B487C4BA0F8048000260027A3
:109220004FF0010A4FF0230B40F201152246494648
:10923000C0E90267C0E90667C0E90A67C0E90E67CE
:10924000C0E91267C0F81080A0F81480C0F8208030
:10925000A0F82480C0F83080A0F83480C0F84080A6
:10926000A0F84480C0F8508080F879A080F889A0E8
:109270000360C0F88CB0A0F8905018F081FA6348F1
:10928000614BA0F8048022464946C0E90267C0E964
:109290000667C0E90A67C0E90E67C0E91267C0F84F
:1092A0001080A0F81480C0F82080A0F82480C0F8B6
:1092B0003080A0F83480C0F84080A0F84480C0F826
:1092C000508080F879A0036080F88980C0F88CB065
:1092D000A0F8905018F054FA4D484B4BA0F8048079
:1092E0004FF0020C22464946C0E90267C0E9066712
:1092F000C0E90A67C0E90E67C0E91267C0F81080CC
:10930000A0F81480C0F82080A0F82480C0F8308035
:10931000A0F83480C0F84080A0F84480C0F85080A5
:1093200080F879A00360C0F88CB0A0F8905080F865
:1093300089C018F025FA3748334B80F879A04FF0F0
:10934000070C49462246C0E90267C0E90667C0E942
:109350000A67C0E90E67C0E91267A0F80480C0F888
:109360001080A0F81480C0F82080A0F82480C0F8F5
:109370003080A0F83480C0F84080A0F84480C0F865
:1093800050800360C0F88CB0A0F8905080F889C07D
:1093900018F0F6F9204B184611F0ECF81E4B1F4957
:1093A00022461846BDE8F84F18F0EAB900600020E0
:1093B0009CB5002074A00020C4630020C962020094
:1093C00024A000209D680300017703003CA000203A
:1093D00085800300983B0400BC9D002095CB0300D2
:1093E000343B04003C3B0400443B04004C3B040081
:1093F000543B04005C3B0400643B0400683B0400F5
:10940000D1620200C89D0020A8590400609E00207F
:10941000F89E0020909F00204CA00020CD6202000A
:109420003C640020A1C0020024640020B4A00020FD
:10943000C5620200000000002DE9F04FCE48DFF8C1
:109440008893CE4FCE4CDFF884838FB00CF010FEA3
:10945000CC49C9480CF0C2FE0121092016F0AEFF2C
:10946000DFF86CE3DFF86CC3C749C84BC848002578
:10947000012600952A468EF80050CCF800503E7028
:109480000D601D6031468023057089F80050C14889
:10949000DFF84493C04F03F0BBF8BE4800952A465E
:1094A0008023022103F0B4F82A4680230321B9481F
:1094B000009503F0ADF8B74802F014FEDFF81CE3A6
:1094C000DFF81CC3B54AB64BB648B74989F8005017
:1094D0008EF800508CF80050DFF808E3DFF808C37E
:1094E0003D6015601D60B14AB14BDFF80093B14F8C
:1094F00005600D602046B0498EF800508CF8005091
:1095000015701D704FF0160AC9F800503D704FF0ED
:109510000B090AF0B5FF4FF2B377294620460AF04F
:1095200067F83246CDE901972046CDF800A040F219
:1095300021131A210AF02CFA4FF0200BCDE90197E4
:10954000CDF800A0204640F22113D8221A214FF076
:10955000420A0AF01DFA3246314602972046442359
:10956000CDE900AB0AF014FA3146CDE901B7204647
:109570004423AB22CDF800A00AF00AFAC123172237
:10958000204600933B211823CDE901950AF000FA0B
:10959000D8F8000017F088FA884B002217F0EEFA8E
:1095A00073A3D3E9002306460F4617F063FD10B9F5
:1095B0006FA7D7E900673946304617F08FFD804D19
:1095C000804B8246286803EA0A2A17F06DFA7B4B23
:1095D000002217F0D3FA66A3D3E9002306460F460C
:1095E00017F048FD10B962A7D7E900673946304641
:1095F00017F074FDDFF8F891C00000F4FC63D9F8AF
:1096000000004AEA030A17F04FFA6C4B002217F0E9
:10961000B5FA57A3D3E9002306460F4617F02AFDF3
:1096200010B953A7D7E900673946304617F056FD01
:109630004AEAE00080B24C23CDE9003027223A23E9
:109640004F4801210BF0A6F8D8F8000017F02CFACB
:109650005A4B002217F092FA45A3D3E9002306469D
:109660000F4617F007FD10B941A7D7E90067394643
:10967000304617F033FD534B0246286803EA0225B3
:1096800017F012FA4D4B002217F078FA38A3D3E9FD
:10969000002306460F4617F0EDFC10B934A7D7E9B2
:1096A00000673946304617F019FDC00000F4FC632E
:1096B000D9F800001D4317F0F7F9404B002217F0CE
:1096C0005DFA2BA3D3E9002306460F4617F0D2FC20
:1096D00010B927A7D7E900673946304617F0FEFCD6
:1096E00045EAE00080B23723CDE9003093222448D8
:1096F000DFF800A13A2301210BF04CF818234FF2B8
:10970000B3720025CDE900321D483A2377220121AA
:109710000BF040F81A4800953A23232201210BF060
:1097200031F9174800953A23242201210BF02AF938
:10973000134800953A23252201210BF023F9104804
:1097400000953A23262201210BF01CF90C480095C4
:109750003A23272201210BF015F9094800953A23F5
:10976000282201210BF00EF90548009544E000BFC6
:109770000000000000E06F409CB500209F640020C6
:10978000B4A00020A086010038710020D470002011
:10979000A86400203C64002048710020447100202F
:1097A000EC700020E8700020C8700020AD6400203C
:1097B000AF64002094640020EC3C04000000FC3FF7
:1097C000DC70002000F8FFFFAA640020E070002099
:1097D000E47000204071002097640020986400200D
:1097E00099640020A0640020AB640020C4700020B5
:1097F000D87000207F9E7F9E3A23C92201210BF062
:10980000C1F8BF4800953A23CA2201210BF0BAF8EB
:10981000BB4800953A23CB2201210BF0B3F8B8489E
:1098200000953A23CC2201210BF0ACF8B448009506
:109830003A23CD2201210BF0A5F8B14800953A2337
:10984000CE2201210BF09EF8AD4800951623D822B8
:109850004FF494710BF056F9A94800951623D822BD
:1098600040F229110BF04EF9A54800951623D82295
:109870004FF495710BF046F9A14800951623D822B4
:1098800040F22B110BF03EF99D4800951623D8228B
:109890004FF496710BF036F9994800951623D822AB
:1098A00040F22D110BF02EF916230122CDE90035DF
:1098B00093484523E8210AF06DFF92490BA813F065
:1098C00059F8914B8E4801260BA94FF005080B273C
:1098D00048F21E4BC4E9043AE67612F065FF0BA885
:1098E00013F058F9864800970E2327224C21CDE922
:1098F000018B0AF04DF8824800970E233F224C213D
:10990000CDE9018B0AF044F849F67F697C4800975D
:109910000E2357224C21CDE9018B0AF039F8784803
:10992000CDF808900E232722A221CDE900780AF075
:109930002FF8734800970E233F22A221CDE9018919
:109940000AF026F86E4800970E235722A221CDE98F
:1099500001890AF01DF857220E2369480097FC215F
:10996000CDE901890AF014F8684965480AF088FDD4
:1099700067490BA813F018F8664B614823610BA9DF
:109980006561E67612F010FF0BA813F003F9624947
:10999000624D0BA812F0EEFF614B594823610BA9F1
:1099A000E676656112F000FF0BA813F0F3F85D494D
:1099B0000BA812F0DFFF5C4B514823610BA96561D6
:1099C000E67612F0F1FE0BA813F0E4F857490BA865
:1099D00012F0D0FF564B4A4823610BA96561E67629
:1099E00012F0E2FE0BA813F0D5F85A464B4632218E
:1099F000D520FDF731FA4F490BA812F0BBFF4E4BB3
:109A00003F4823610BA9C4F814A0E67612F0CCFEFF
:109A10000BA813F0BFF89FED380B02210BA813F031
:109A200083F8464B364823610BA9C4F814A0E676A8
:109A300012F0BAFE0BA813F0ADF8414908A812F0D5
:109A400099FF404905A812F095FF05A908A813F051
:109A500015F901460BA812F0A7FF3B4B28482361DC
:109A60000BA9C4F814A0E67612F09EFE0BA813F022
:109A700091F805A813F08EF808A813F08BF8334B73
:109A80001B78002B00F05781DFF8CC801C4898F839
:109A900000304EF631654CF67B56002B14BF2B463A
:109AA000334611222227CDE9012300977123772223
:109AB000462109F06DFF98F800300097002B08BF91
:109AC000354601950E481223772246210AF062FEA0
:109AD0001F490BA812F04EFF1E4B236100220123E9
:109AE0000BA90748E376626112F05EFE0BA813F043
:109AF00051F833E0AFF30080000000000000504058
:109B0000B4A00020703B0400E5001500DC3C04001C
:109B1000BC9D002006008A007C3B04001E841E843D
:109B200065003200843B040065004B008C3B040060
:109B300065006400903B0400B9004B00CC00640059
:109B40009C3B0400A83B0400EB006400AC640020D4
:109B5000B03B04004E008E00A1640020974B1B78A0
:109B6000002B00F013814EF6316611232225CDE93A
:109B70000136934800957123A822462109F008FF79
:109B8000CDE900568E481223A82246210AF002FE93
:109B90008C490BA812F0EEFE8B4B236100220123AF
:109BA0000BA98748E376626112F0FEFD0BA812F064
:109BB000F1FF864B1B78002B00F0DC804EF63166FF
:109BC00011232225CDE901367D48009571237722A6
:109BD000C02109F0DDFECDE9005679481223772235
:109BE000C0210AF0D7FD7A490BA812F0C3FE794BC9
:109BF0002361002201230BA97148E376626112F010
:109C0000D3FD0BA812F0C6FF734B1B78002B00F09E
:109C1000A5804EF6316611232225CDE9013668482C
:109C200000957123A822C02109F0B2FECDE90056AB
:109C300063481223A822C0210AF0ACFD67490BA893
:109C400012F098FE664B2361002501230BA95C48A6
:109C5000E376656112F0A8FD0BA812F09BFF58484F
:109C600000955423772298210AF04CFF5448009520
:109C70005423772299210AF045FF51480095542337
:109C800077229A210AF03EFF4D480095542377220F
:109C90009B210AF037FF4A480095542377229C21E4
:109CA0000AF030FF46480095542377229D210AF0A0
:109CB00029FF43480095542377229E210AF022FF72
:109CC0003F4800955423772240F213110AF01AFFFF
:109CD0003B480095542377224FF48A710AF012FF13
:109CE000374800955423772240F215110AF00AFFF5
:109CF00033480095542377224FF48B710AF002FF0A
:109D00002F4800955423772240F217110AF0FAFEEB
:109D10002B480095542377224FF48C710AF0F2FE01
:109D2000274800955423772240F219110AF0EAFEE1
:109D30000FB0BDE8F08F2B4B1B789BB34CF67B56D6
:109D400011232225CDE901361D4800957123772284
:109D5000462109F01DFECDE90056B3E622234CF260
:109D6000D252CDE9003216485223A822C0210AF06F
:109D700011FD63E722234CF2D252CDE900321048A4
:109D800052237722C0210AF005FD2CE722234CF252
:109D9000D252CDE900320A485223A82246210AF0C5
:109DA000F9FCF5E622234CF2D252CDE90032044808
:109DB0005123772246210AF0EDFC89E69B640020BE
:109DC000B4A00020B83B04004E00BF00A7640020F0
:109DD000C43B0400C8008E00AE640020CC3B0400ED
:109DE000C800BF00A1640020424B1B7870B5002B57
:109DF00050D1414C2378002B3ED140480DF02EF934
:109E00003F480DF02BF93F480DF028F93E480DF082
:109E100025F90A20FCF7C8FC0820FCF7C5FCFCF774
:109E200091FF3A4B1B78D3B9FCF74CFF384B1B78AA
:109E300063B9FEF7C5FD374B1B780BB1FEF7FCFF8E
:109E4000FDF70AFB344B1B7893B970BDFDF778FC26
:109E5000FEF7B6FD2F4B1B78002BEFD1F0E7FDF797
:109E60007BF8FCF72FFF2A4B1B78002BE1D0EDE7A6
:109E7000BDE87040FCF73ABA2848012102F0EEFB39
:109E80000028E2D0254802F069FCBDE87040234874
:109E900002F028B9224D12F07BFF224B2A681B6882
:109EA000801A9842A5D9204E134C304610F0A0FBE2
:109EB0002378B6F906203BB11C4B1B6893420ADBA2
:109EC00012F066FF286095E7184B1B689342F7DD98
:109ED000FCF7AEFBF4E700263146154826700CF07F
:109EE000D3FC1449144A154B0E6016601E60FFF730
:109EF000A3FAE5E7A3640020A9640020C89D002020
:109F0000609E0020F89E0020909F00209F6400200B
:109F1000A8640020A5640020AF6400203C640020F9
:109F200000710020586000204CA000205C600020E0
:109F3000B4A000202C710020247100201C7100208E
:109F40002DE9F04F1448154C154F164E164D89B09B
:109F50000CF08EF8154910480CF040F9144B1548D8
:109F60001A78154982F001021A70002323700370D9
:109F70000B70124C124813493B6033602B702370F6
:109F800003700B60002A00F010840F4E3578EDB19D
:109F900009B0BDE8F08F00BF9CB50020A864002088
:109FA00038710020D4700020AD640020A08601002C
:109FB00097640020A56400209F640020AF64002007
:109FC000E470002040710020AA640020D74800956A
:109FD00060238022012102F01BFB2A46D348009512
:109FE0008023022102F014FB2A4680230321CF485C
:109FF0000095CF4C02F00CFBCC4802F073F82946D8
:10A00000092016F0DBF94FF001092046294686F8B1
:10A01000009019274FF2B37609F0EAFA7123CDE9DF
:10A02000017620460093294655236FF0180209F067
:10A03000AFFCAC23CDE90176204600932946552399
:10A040005D2209F0A5FC009620464FF4947354223B
:10A0500018210AF097FC009620464FF4947355227D
:10A0600018210AF08FFC009620464FF49473562274
:10A0700018210AF087FC009620464FF4947357226B
:10A0800018210AF07FFC009620464FF494735D225D
:10A0900018210AF077FC009620464FF494735E2254
:10A0A00018210AF06FFC009620464FF494735F224B
:10A0B00018210AF067FC009620464FF49473602242
:10A0C00018210AF05FFC05265723CDE9003620460B
:10A0D000029528236FF00202322109F059FC9423E3
:10A0E000CDE901652046009361222823322109F041
:10A0F0004FFC204600951023532279210AF002FDDF
:10A1000020460095102353227A210AF0FBFC2046BA
:10A11000009510235322F1210AF0F4FC204600950B
:10A1200010235322F2210AF0EDFC20462946009527
:10A1300032230C220AF026FC2046294600953223C1
:10A140000D220AF01FFC20462946009532230E22DC
:10A150004FF6C8660AF016FC2D23CDE900362046DE
:10A16000294632230F220AF015FB20462946009586
:10A17000322339220AF006FC204629460095322374
:10A180003A220AF0FFFB4FF00808204629460095C6
:10A1900032233B220AF0F6FB1E2356222046CDF83E
:10A1A000008001957B210AF0F5FA204661490AF00A
:10A1B00067F9614905A812F0DDFB604A604B84F83D
:10A1C0001B90C4E9042305A9204612F0EDFA05A866
:10A1D000102712F0DFFC4CF2D25B204659490AF0FE
:10A1E0004FF9CDF80480204600973B46CDF808B0E3
:10A1F0001F22462109F0CCFB4FF02A0ACDE9018B42
:10A2000000973B4620463922462109F0C1FB4346D0
:10A2100020460195CDF800A01F2250210AF0BAFA7D
:10A2200048F21E42CDE900783B4620460292B92111
:10A230001F2209F0ADFB4CF67B52CDE900783B467E
:10A2400020460292B921392209F0A2FB1F2243467F
:10A250002046CDF800A00195C3210AF09BFA3A49A7
:10A260003A4F05A812F086FB394B236105A96761B7
:10A2700084F81B90204612F097FA05A812F08AFC89
:10A28000344905A812F076FB334B236105A96761B9
:10A29000204684F81B9012F087FA05A812F07AFC89
:10A2A0002E4905A812F066FB2D4A2E4B84F81B9010
:10A2B000C4E9042305A9204612F076FA05A812F095
:10A2C00069FC294905A812F055FB284A284B84F857
:10A2D0001B90C4E9042305A9204612F065FA05A8DD
:10A2E00012F058FC00962046F8236C223D210AF01B
:10A2F00049FB00962046F82384223D210AF042FBC8
:10A3000000962046F8239A223D210AF03BFB009656
:10A310002046F823B2223D210AF034FB0096204665
:10A32000F823C8223D210AF02DFB23E03C640020E5
:10A33000B4A00020EC3C0400B03B0400F400140086
:10A34000C8FEC8FEDC3C0400D43B0400D2C5D2C524
:10A3500078002E00DC3B040078004800E43B040059
:10A36000F0002E001E841E84F03B0400F000480024
:10A370007BCD7BCD00962046F823E0223D210AF0DC
:10A3800001FB0096204618236C223D210AF0BAFBFF
:10A390000096204618239A223D210AF0B3FB00962E
:10A3A00020461823C8223D210AF0ACFB0096204627
:10A3B00018236C224FF49A710AF0A4FB00962046F1
:10A3C00018239A224FF49A710AF09CFB00962046BB
:10A3D0001823C8224FF49A710AF094FB0096204685
:10A3E00018236C227B210AF08DFB0096204618234F
:10A3F0009A227B210AF086FB009620461823C82269
:10A400007B210AF07FFB0096204618236C22B9219D
:10A410000AF078FB0096204618239A22B9210AF008
:10A4200071FB009620461823C822B9210AF06AFB66
:10A430000096204618236C22F7210AF063FB009651
:10A44000204618239A22F7210AF05CFB46F6622880
:10A45000009620461823C822F7210AF053FB204615
:10A46000CDF80080F8238A223D210AF08BFA20469D
:10A47000CDF80080F823B8223D214FF6FF770AF08F
:10A4800081FA2046CDF80080F823E6223D210326FC
:10A490000AF078FA20460097022390223A210AF027
:10A4A00071FA20463346019700968F223D210AF02B
:10A4B00071F92B4620468F223D210AF00BFD2B46D9
:10A4C000204691223F210AF005FD33462046CDE982
:10A4D00000678F2241210AF05DF92B462046902229
:10A4E00042210AF0F7FC33462046CDE900678F226F
:10A4F0007A210AF04FF92B46204690227B210AF060
:10A50000E9FC33462046CDE900678F22B7210AF0E7
:10A5100041F92B4620468F22B7210AF0DBFC2B465F
:10A5200020469122B9210AF0D5FC33462046CDE9D8
:10A5300000678F22BC210AF02DF92B46204690227D
:10A54000BD210AF0C7FC2046009702238F22F52187
:10A550000AF0D8FA3346204600978F22F7210AF0F6
:10A56000D1FA3B4620469022F6210AF0B3FC33464E
:10A570002046CDE900678F22FA210AF00BF92B461D
:10A5800020469022FB210AF0A5FC022233462046F9
:10A590000092019790224FF499710AF0FBF83B4624
:10A5A00020468F224FF499710AF094FC33462046DE
:10A5B000CDE900678F2240F237110AF0EBF82B4605
:10A5C000204690224FF49C710AF084FC33462046CA
:10A5D000CDE90067BD223E210AF0DCF82B4620467B
:10A5E000BE223F210AF076FC33462046CDE90067C3
:10A5F000BD2278210AF0CEF82B462046BD227821D4
:10A600000AF068FC2B462046BF227A210AF062FC41
:10A6100033462046CDE90067BD227C210AF0BAF816
:10A620002B462046BD227E210AF054FC2B462046B4
:10A63000BF227C210AF04EFC33462046CDE900675C
:10A64000BD22B7210AF0A6F82B462046BD22B9212B
:10A650000AF040FC2B462046BF22B7210AF03AFC04
:10A6600033462046CDE90067BD22BC210AF092F8AE
:10A670002B462046BE22BD210AF02CFC3346204644
:10A680000097BD22F5210AF07DF93B462046BE2207
:10A69000F7210AF01FFC3B462046BF22F6210AF0B4
:10A6A00019FC33462046CDE90067BD22F9210AF0A6
:10A6B00071F82B462046BD22FB210AF00BFC2B46ED
:10A6C0002046BF22F9210AF005FC334620460097B8
:10A6D000BD224FF498710AF015FA33462046CDE9B1
:10A6E0000067BD2240F233110AF054F82B46204691
:10A6F000BE224FF49A710AF0EDFB33462046CDE9B5
:10A700000067BD2240F237110AF044F82B4620467C
:10A71000BE224FF49C710AF0DDFB33462046CDE9A2
:10A720000067EB2239210AF035F833462046CDE99F
:10A730000067EB223D210AF02DF82B462046EC2243
:10A740003A210AF0C7FB33462046CDE90067EB22E9
:10A7500041210AF01FF82B462046EC2242210AF044
:10A76000B9FB3B4600954FF46172EB217520FDF774
:10A7700099FC3B4600954FF47A72EB21B320FDF72C
:10A7800091FC3B46009540F24C42EB21F320FDF753
:10A7900089FC3B4600954FF49662EB214FF497708D
:10A7A000FDF780FC09B0BDE8F08FFEF745FE09B06B
:10A7B000BDE8F08F2DE9F04FDFF8CCC3DFF8CCE334
:10A7C000D74AD849DFF8C8B3DFF8C8A3DFF8C89381
:10A7D000DFF8C883D448D54FD54C89B000258026F2
:10A7E00000962B468EF800508CF8005015600D60D6
:10A7F0002A468BF800508AF8005089F8005088F8F3
:10A800000050012101F004FF00962B462A46C6485D
:10A81000DFF88CA3DFF88C93DFF88C83022101F042
:10A82000F7FE2B462A4600960321BF48C14E01F091
:10A83000EFFEBD4801F056FCBF48DFF870E3DFF8DB
:10A8400070C3BE4ABE4BBF4905603846CEF80050C3
:10A85000CCF8005015701D70CAF80050C9F80050AF
:10A86000C8F8005035700D700BF002FC3846B64940
:10A870000BF0B4FC2946204608F0BAFE4FF6C86932
:10A880001527ED23CDE901792046009303224623C5
:10A89000012109F07DF80826ED23009320463B4670
:10A8A000019602950B22332109F072F849F67F6276
:10A8B00038234FF00408CDE90032204632233E22EF
:10A8C000012109F067FF2046CDF800800195332370
:10A8D0003A22012109F05EFFCDE9008520463323AD
:10A8E0007622012109F056FFCDE900852046332369
:10A8F000B322012109F04EFFCDE90069204637233C
:10A9000003221A2109F046FFCDE90069204695236C
:10A910000322592109F03EFFCDE9006920464A2370
:10A920000322F62109F036FF282348F2B7370D2617
:10A9300020460093CDF804901923C822012109F084
:10A9400029FFCDE90067204620233E22432109F05C
:10A9500021FFCDE90067204620237A22432109F018
:10A9600019FFCDE9006720462023B722432109F0D3
:10A9700011FFCDE90067204620233E22BA2109F0CD
:10A9800009FF4CF67B5BCDE90067204620237A2245
:10A99000BA2109F0FFFE00962046CDF804B05023FE
:10A9A0003E22662109F0F6FECDE9006B20465023D9
:10A9B0007A22662109F0EEFECDE9006B2046502395
:10A9C000B722662109F0E6FECDE9006B20465F2341
:10A9D0003E22DD2109F0DEFECDE9006B20465F233B
:10A9E0007A22DD2109F0D6FE4FF6186A2723204689
:10A9F000CDF804A000934F222023432109F0CAFE82
:10AA00002723CDF804A00093204620238B22432146
:10AA100009F0C0FE2823CDF804A00093204620238F
:10AA2000C822432109F0B6FE2723CDF804A00093E5
:10AA3000204620234F22BA2109F0ACFE65238B2249
:10AA4000CDF804A020460093BA21202309F0A2FEED
:10AA500020463E4909F014FD3D4905A811F08AFF42
:10AA60003C4B23614FF0010A4FF0FF3305A920460C
:10AA7000636184F81BA011F097FE05A812F08AF814
:10AA80002046354909F0FCFC344905A811F072FF55
:10AA9000334B236105A9204684F81BA0656111F0A2
:10AAA00083FE05A812F076F82E4905A811F062FF82
:10AAB0002D4B236105A9204684F81BA0656111F088
:10AAC00073FE05A812F066F8284905A811F052FF98
:10AAD000274B236105A9204684F81BA0656111F06E
:10AAE00063FE05A812F056F8224905A811F042FFAE
:10AAF000214B236105A9204684F81BA0656111F054
:10AB000053FE05A812F046F81C4905A811F032FFC3
:10AB10001B4B236105A91B4B636120464AE000BF24
:10AB200038710020D47000203C6400209CB50020C7
:10AB3000B4A00020A064002048710020946400208C
:10AB4000AD640020AB640020A0860100EC3C040052
:10AB5000FC3B0400DC002B00DC3C04000C3C04004B
:10AB60000900CC00143C040004004F001C3C04000D
:10AB700004006000243C0400040072002C3C04002B
:10AB8000460023001E841E849964002098640020DF
:10AB90009F640020A8640020AA640020976400201D
:10ABA00044710020EC700020E8700020C870002084
:10ABB000C470002084F81BA011F0F6FD05A811F068
:10ABC000E9FFA04905A811F0D5FE9F4B9F4A62619D
:10ABD00005A92046236184F81BA011F0E5FD4FF084
:10ABE000030A05A811F0D6FF204653460195CDF87B
:10ABF00000A04622562109F0CDFD53462046CDE95E
:10AC000000A546225A2109F0C5FD3B4620464722B1
:10AC100057210AF05FF953462046CDE900A54622A8
:10AC20005E2109F0B7FD3B46204647225F210AF02E
:10AC300051F900972B464FF4617282215620FDF79F
:10AC400031FA00972B464FF47A72BE215320FDF75C
:10AC500029FA00972B4640F24C424621CD20FDF7C1
:10AC600021FA00972B464FF496628221CB20FDF704
:10AC700019FA2B46CDF800904FF4966206217F20FA
:10AC8000FDF710FA4FF6FF772B46CDF800904FF402
:10AC90007A7206219620FDF705FA204600970B23CD
:10ACA0009A2240F2111108F0ABFD4346204600976E
:10ACB000CE22F92108F0A4FD434620460097CE227B
:10ACC0004FF4957108F09CFDCDE9006720462E23D6
:10ACD000B222FA2109F05EFD4FF478463523CDE922
:10ACE000003620460A23A5224FF4867109F052FD52
:10ACF000CDE9008620460A238D224FF4867109F0A3
:10AD000049FD28230196009320460623B2224FF4E2
:10AD1000837109F03FFD2823019600932046062306
:10AD2000B2224FF48B7109F035FD0F2320460093BA
:10AD300001970623C0224FF4877108F095FBCDE9F7
:10AD4000008743462046A92240F20F1109F022FD58
:10AD5000CA23BE264FF0CB08204600930197F82364
:10AD6000BF22FA2108F08AFA20464246019700964F
:10AD70004FF48173FB2108F081FA32462046019797
:10AD8000CDF800804FF494734FF48F7108F076FA89
:10AD900032462046CDE9008740F22B1340F22711BE
:10ADA00008F06CFA14232046009301971A23DA2244
:10ADB0004FF4827109F0EEFC40F20313ED21FE2204
:10ADC000029100912046019219460397DA2208F079
:10ADD00065FF4FF48F73ED2140F223120291009131
:10ADE0002046019219460397DA2208F057FF48F2ED
:10ADF0001E432046009362225023662109F0C2FDC3
:10AE00004CF2D253204600939E225023662109F033
:10AE1000B9FD2046CDF800B05023DB22662109F0B1
:10AE2000B1FD4EF63163009320465E236222DD21A0
:10AE300009F0A8FD064A074B15701D6009B0BDE872
:10AE4000F08F00BF403C0400460036001E841E8484
:10AE5000E4700020407100202DE9F04F464889B091
:10AE60000BF006F9454944480BF0B8F911F090FF92
:10AE7000434B444A1B6812684349C31A002BB8BFAE
:10AE80005B429342086038DB404B41481A784149A5
:10AE9000414D424C424F434E82F001021A70002352
:10AEA00003700B70404841492B70237003600B60A6
:10AEB0003F4D404C404841492B60236003600B608C
:10AEC0003F4D404C404841493B7033602B702370EC
:10AED00003700B7062B13E4B1C78CCB1DFF8189157
:10AEE00099F80050002D00F0898009B0BDE8F08F7E
:10AEF000FEF7A2FA09B0BDE8F08F344B012109201A
:10AF0000197015F05BFAFFF755FC09B0BDE8F08F3A
:10AF1000304E11F03DFF304B32681B68801A98426A
:10AF2000E3D92E4D2146284608F062FB2C4905A89E
:10AF300011F020FD01242B4A2B4B2A616B6105A9DE
:10AF40002846EC7611F030FC05A811F023FE2749C5
:10AF500005A811F00FFD264A264BEC76C5E904231F
:10AF600005A9284611F020FC05A811F013FE11F0E8
:10AF70000FFF3060B9E700BF9CB50020A08601003C
:10AF8000D070002070600020CC70002098640020F9
:10AF9000AA6400209F640020A5640020AD64002006
:10AFA000E4700020407100204871002044710020AE
:10AFB000EC700020E8700020C8700020C4700020F1
:10AFC000A0640020AB64002094640020AF640020E3
:10AFD0009B640020087100206C600020B4A0002059
:10AFE000B83B0400D3001500C8FEC8FE543C040062
:10AFF0006E00A9007F9E7F9EA86400202A46CE484E
:10B0000000958023012101F003FBCB4800956023CC
:10B010008022022101F0FCFA2A4680230321C6483F
:10B020000095C64CC64F01F0F3FAC34801F05AF838
:10B030002946092001264FF2B37815F0BFF94FF0E9
:10B04000190B204629464FF08C0A89F8006008F059
:10B05000CFFACDE901B820462946CDF800A06423F7
:10B060006FF0180208F094FCCDE901B8204629469B
:10B07000CDF800A06423782208F08AFCCDF8008087
:10B0800020464FF494737022182109F07BFCCDF810
:10B09000008020464FF494737122182109F072FC4D
:10B0A000CDF8008020464FF494737222182109F0E5
:10B0B00069FCCDF8008020464FF494737322182168
:10B0C00009F060FCCDF8008020464FF4947378229C
:10B0D000182109F057FCCDF8008020464FF49473F6
:10B0E0007922182109F04EFCCDF8008020464FF45B
:10B0F00094737A22182109F045FCCDF8008020468F
:10B100004FF494737B22182109F03CFC4FF00508A2
:10B110007323CDE90038204602953C236FF00202EC
:10B12000322108F035FC7D2320460093CDE90185CE
:10B130003C237C22322108F02BFC20460095102372
:10B140006E22792109F0DEFC2046009510236E2244
:10B150007A2109F0D7FC2046009510236E22F121B8
:10B1600009F0D0FC2046009510236E22F22109F050
:10B17000C9FC20462946009532231C2209F002FC16
:10B1800020462946009532231D2209F0FBFB20466C
:10B190002946009532231E2209F0F4FB4FF6C862BF
:10B1A0002E23CDE900322046294632231F2209F002
:10B1B000F1FA20462946009532234D2209F0E2FBA0
:10B1C00020462946009532234E2209F0DBFB20461B
:10B1D0002946009532234F2209F0D4FB082372221E
:10B1E0002046009301951E237B2109F0D3FA2046C7
:10B1F000544909F045F9544905A811F0BBFB534ADD
:10B20000534BE676C4E9042305A9204611F0CCFA95
:10B2100005A811F0BFFC20464E4909F031F94E490E
:10B2200005A811F0A7FB4D4BE676C4E9043705A944
:10B23000204611F0B9FA05A811F0ACFC484905A860
:10B2400011F098FB474B236105A967612046E6761C
:10B2500011F0AAFA05A811F09DFC434905A811F0C8
:10B2600089FB424B236105A967612046E67611F010
:10B270009BFA05A811F08EFC3D4905A811F07AFB58
:10B280003C4B236105A967612046E67611F08CFAF4
:10B2900005A811F07FFC384905A811F06BFB374B6E
:10B2A000236105A967612046E67611F07DFA05A8BD
:10B2B00011F070FC324905A811F05CFB314B2361A1
:10B2C00005A967612046E67611F06EFA05A811F02F
:10B2D00061FC2D4905A811F04DFB2C4B236105A9FC
:10B2E00067612046E67611F05FFA05A811F052FC7E
:10B2F000274905A811F03EFB264B236105A967618C
:10B300002046E67611F050FA05A811F043FC2249D8
:10B3100005A811F02FFB214B236105A96761204689
:10B32000E67611F041FA05A811F034FC1C4905A895
:10B3300011F020FB36E000BF3C640020B4A00020E8
:10B340001E841E84EC3C0400B83B0400D3001500AE
:10B35000C8FEC8FEDC3C0400643C04007000300001
:10B36000683C040070004A00703C040070006300F8
:10B37000783C040070009600803C04007000B0002F
:10B38000883C04007000CA00903C04007000E40097
:10B39000943C0400ED003000983C0400ED004A00AD
:10B3A000A43C0400154B236105A967612046E6769D
:10B3B00011F0FAF905A811F0EDFB114905A811F0FB
:10B3C000D9FA104B236105A967612046E67611F092
:10B3D000EBF905A811F0DEFB0B4905A811F0CAFA3C
:10B3E0000A4B236105A967612046E67611F0DCF976
:10B3F00005A811F0CFFB09B0BDE8F08FED006300A8
:10B40000B03C0400ED009600B83C0400ED00B00034
:10B410002DE9F043294889B00AF02AFE2849274837
:10B420000AF0DCFE11F0B4FC264B274A1B681268B8
:10B4300026491B1A002BB8BF5B4293420860C0F23A
:10B44000B382234A234C137823482449DFF8D0C021
:10B45000234F244EDFF8CC80002583F001031370C6
:10B46000256005600D70204C20482149214A257037
:10B4700005600D601560204C20482149214A256057
:10B4800005600D601570204C20482149214A8CF838
:10B4900000503D603570257005700D70157088F88E
:10B4A0000050002B40D11C480CF042FF1B4B0122E6
:10B4B0001A70FDF7C1FF09B0BDE8F0839CB500200C
:10B4C000A0860100CC70002070600020D0700020A9
:10B4D0009964002038710020D4700020AD640020F1
:10B4E000407100209F640020AA6400204871002061
:10B4F00044710020EC700020E8700020C87000202B
:10B50000C4700020A0640020AB640020946400207C
:10B51000AF640020A864002058B60020A464002076
:10B52000E4700020A56400200121092014F046FFEA
:10B5300000952A46D448D54CD54F8023012101F0EF
:10B5400067F800952A46D0488023022101F060F870
:10B550006023802200950321CB4801F059F8CA48A6
:10B5600000F0C0FD204629464FF2B37608F040F8BF
:10B570004FF019095B23CDE9019620460093294637
:10B5800055236FF0180208F003FAC223CDE90196A3
:10B590002046009329465523472208F0F9F90096E2
:10B5A000204660233F22182109F0ECF9009620463E
:10B5B00061233F227B2109F0E5F9009620466123B3
:10B5C0003F22DF2109F0DEF9009620466023402269
:10B5D000182109F0D7F900962046612340227B21EB
:10B5E00009F0D0F90096204661234022DF2109F0BE
:10B5F000C9F90096204660234122182109F0C2F9BA
:10B6000000962046612341227B2109F0BBF9009678
:10B61000204661234122DF2109F0B4F9009620463B
:10B6200060234222182109F0ADF9009620464323F9
:10B630004222992109F0A6F9009620466123422270
:10B64000DF2109F09FF90096204660234722182148
:10B6500009F098F90096204643234722992109F0E2
:10B6600091F90096204661234722DF2109F08AF9EB
:10B670000096204660234822182109F083F900969D
:10B680002046612348227B2109F07CF90096204660
:10B6900061234822DF2109F075F9009620466023D6
:10B6A0004922182109F06EF90096204661234922AB
:10B6B0007B2109F067F90096204661234922DF21AA
:10B6C00009F060F90096204660234A22182109F00B
:10B6D00059F90096204661234A227B2109F052F94C
:10B6E0000096204661234A22DF2109F04BF90A2601
:10B6F0004723CDE900360295204628236FF0070244
:10B70000322108F045F9AD23CDE9016520460093CB
:10B710004B222823322108F03BF900952046294688
:10B7200032238D2209F02EF9009520462946322336
:10B730008E2209F027F900952046294632238F22D0
:10B7400009F020F90095204629463223B02209F05D
:10B7500019F90095204629463223B12209F012F941
:10B760000095204629463223B22209F00BF94FF604
:10B77000C8622023CDE90032204632239022294698
:10B7800009F008F82046434908F07AFE424905A826
:10B7900011F0F0F80126414A414B2261636105A98D
:10B7A000E676204611F000F805A811F0F3F92046DE
:10B7B0003C4908F065FE3C4905A811F0DBF83B4B1D
:10B7C000E676C4E9043705A9204610F0EDFF05A888
:10B7D00011F0E0F9364905A811F0CCF8354A364B9E
:10B7E000E676C4E9042305A9204610F0DDFF05A88C
:10B7F00011F0D0F92C4905A811F0BCF82F4B2361AA
:10B8000005A96761E676204610F0CEFF05A811F085
:10B81000C1F92B4905A811F0ADF82A4A2A4BE67662
:10B82000C4E9042305A9204610F0BEFF05A811F0C5
:10B83000B1F91D4905A811F09DF8244B236105A914
:10B840006561E676204610F0AFFF05A811F0A2F979
:10B8500010274FF0080948F21E43CDE90193204616
:10B8600000973B462122492108F092F8CDE9007566
:10B870004B4620462122532108F08CFF4CF67B5288
:10B88000CDE9007924E000BF3C640020B4A0002092
:10B890007F9E7F9EEC3C0400BC3C0400B900140079
:10B8A000C8FEC8FEDC3C0400CCB2040064003000DA
:10B8B000CC3C0400740030001E841E84D70030008D
:10B8C000D43C0400E60030007BCD7BCD2600A700F1
:10B8D0003B4620460292B921212208F059F84B46F6
:10B8E0002122009701952046C32108F053FF3448D8
:10B8F000344F96210CF048FD334931480CF042FD9D
:10B90000324B2F481A6831460CF054FC88F800601E
:10B91000061E18BF012646F66225204600958023A4
:10B9200061223C213E7009F0EDF82046009580230D
:10B9300061223D2109F0E6F82046009504236022AB
:10B940003C2109F01FF8204600950423E1223C2108
:10B9500009F018F8204600950423A1223C2109F0A3
:10B9600011F8204600958023612240F2371109F03A
:10B97000C9F820460095802361224FF49C7109F09C
:10B98000C1F820460095042360224FF49A7108F014
:10B99000F9FF009520460423E1224FF49A7108F044
:10B9A000F1FF09B0BDE8F083094B012109201970AE
:10B9B00014F004FDFEF7FEFE09B0BDE8F08300BF01
:10B9C00058B60020A764002015C0020008600020BF
:10B9D000AF64002030B58B488B4DADF2946D00F014
:10B9E0006DFB8A4800F06AFB00234FF4A0722846E2
:10B9F000F0210AF0F1FD284601210AF08DFD84496D
:10BA00002846002408F03CFD7E48EC7600F0A6FEB7
:10BA10007E4800F0A3FE7B48402100F077FE7B4883
:10BA2000402100F073FE0121102014F043FC01219D
:10BA3000112014F03FFC0121122014F03BFC0121E5
:10BA4000132014F037FC01210D2014F033FC0121E8
:10BA5000042014F02FFC0121092014F02BFC0121FB
:10BA6000092014F0ABFC0121084614F023FC204609
:10BA7000012114F01FFC0121022014F01BFC012104
:10BA8000084614F09BFC2046012114F097FC01218C
:10BA9000022014F093FC0A2011F086F921460E20B2
:10BAA00014F008FC2146012014F004FC2146204635
:10BAB00014F000FC2146022014F0FCFB2146142067
:10BAC00014F0F8FB2146072014F0F4FB514B0093CF
:10BAD0005148392301220A210AF0E6FF4F4B187022
